:100000000C9472000C949A000C949A000C949A0030
:100010000C949A000C949A000C949A000C949A00F8
:100020000C949A000C949A000C949A000C949A00E8
:100030000C949A000C949A000C949A000C949A00D8
:100040000C947F0F0C949A000C94EE090C94C80940
:100050000C949A000C949A000C949A000C949A00B8
:100060000C94E9010C949A00CA06D006D606DC0668
:10007000E206E806EE06E707EE07F507FC070308C9
:100080001A080A081A0811080000000024002700B6
:100090002A0000000000250028002B0000000000BE
:1000A00023002600290004040404040404040202BA
:1000B00002020202030303030303010204081020E7
:1000C00040800102040810200102040810200000F2
:1000D0000008000201000003040700000000000007
:1000E0000000942811241FBECFEFD8E0DEBFCDBFA3
:1000F00015E0A0E0B1E0E6E7F9E502C005900D9259
:10010000A43AB107D9F727E0A4EAB5E001C01D92EF
:10011000AD3AB207E1F710E0C2E7D0E004C02197A2
:10012000FE010E949A2CC137D107C9F70E94C90F5E
:100130000C94B92C0C9400000895089585ED8093DB
:10014000BC008091BC0084FDFCCF10924E06089547
:100150004091FF05262F30E0240F311D213231055B
:10016000DCF420914E062430C9F4FC0180E090E0DC
:10017000861758F43091FF052191DC01A152BA4F46
:10018000A30FB11D2C930196F3CF8091FF05680F4B
:100190006093FF0580E0089581E0089582E008956E
:1001A000089508950895E091270680912606E8179E
:1001B00030F4F0E0E154FA4F808190E008958FEF41
:1001C0009FEF08959091270680912606981750F486
:1001D000E92FF0E0E154FA4F208130E09F5F9093E7
:1001E000270602C02FEF3FEFC90108958091260630
:1001F00090E020912706821B91090895CF92DF920B
:10020000EF92FF920F931F93CF93DF937C01CB016B
:100210008A0120914F06222389F0EB016B01C40E65
:10022000D51ECC15DD0569F06991D701ED91FC91E2
:100230000190F081E02DC7010995F3CF642F0E9452
:10024000A800C801DF91CF911F910F91FF90EF900F
:10025000DF90CF900895CF93DF931F92CDB7DEB795
:10026000698320914F062223D1F02091720620321B
:1002700040F021E030E0FC013383228380E090E015
:1002800015C080915006E82FF0E0EF5AF94F9981A0
:1002900090838F5F809350068093720605C061E063
:1002A000CE0101960E94A80081E090E00F90DF91BE
:1002B000CF910895089580E090E008950F931F93E3
:1002C000CF93DF93EC01423018F08C8188608C83EF
:1002D0004F836887222329F0413019F48C81846090
:1002E0008C8364E670E080E090E00E94450F6C81B2
:1002F00064FD31C0E881F9810684F785E02D42E094
:1003000063E0CE0109958BE496E40197F1F7E8816B
:10031000F9810684F785E02D42E063E0CE0109957E
:1003200003E512E0C8010197F1F7E881F98106843D
:10033000F785E02D42E063E0CE010995C801019701
:10034000F1F7E881F9810684F785E02D42E062E06B
:10035000CE01099517C06062CE010E94090B8BE4A3
:1003600096E40197F1F76C816062CE010E94090B5F
:1003700003E512E0C8010197F1F76C816062CE01DC
:100380000E94090BC8010197F1F76C816062CE01F0
:100390000E94090B8BEE90E00197F1F784E08D83CA
:1003A0006CE0CE010E94090BCE010E94110B82E08D
:1003B0008E8366E0CE010E94090BE881F9810484F6
:1003C000F585E02D6FEFCE01DF91CF911F910F9159
:1003D00009941F920F920FB60F9211242F933F93FF
:1003E0004F935F936F937F938F939F93AF93BF933D
:1003F000EF93FF938091B900887F803609F49CC009
:1004000068F5883209F45BC090F4803109F454C077
:1004100038F4882309F4F6C0883009F44DC0F6C0DA
:10042000883109F44CC0803209F45DC0EFC08034DB
:1004300009F468C048F4803309F455C0883309F0E2
:10044000E5C080934C06D8C0803509F44FC088358C
:1004500009F45DC0883409F0D9C0D6C0883909F4E0
:10046000C7C0A8F4883709F467C038F4883609F49F
:1004700063C0803709F460C0C9C0883809F4B8C0C7
:10048000803909F45FC0803809F0C0C05BC0803B90
:1004900009F486C038F4803A09F466C0883A09F451
:1004A0007FC0B4C0803C09F4A7C0883C09F4A4C054
:1004B000883B09F48AC0AAC08091290610C0909197
:1004C0004B0680914A06981770F5E0914B0681E043
:1004D0008E0F80934B06F0E0E65DF94F80818093AC
:1004E000BB0085EC86C080934C068EC0E0914B0625
:1004F00081E08E0F80934B068091BB00F0E0E65DBB
:10050000F94F808390914B0680914A066EC0E0912E
:100510004B0681E08E0F80934B068091BB00F0E08C
:10052000E65DF94F808380914D0681116DC081E0B9
:100530008093280684EA61C083E080934E0610927F
:100540002106CFCF80912106803208F051C0E09182
:10055000210681E08E0F809321068091BB00F0E0A0
:10056000EF5FF94F8083BDCF85EC8093BC00109284
:100570004E0680912106803230F4E0912106F0E0B1
:10058000EF5FF94F10826091210670E0E091220642
:10059000F091230681E096E009951092210636C07D
:1005A00084E080934E06109200061092FF05E091C1
:1005B0002406F091250609958091FF05811105C05B
:1005C00081E08093FF051092DF05E091000681E055
:1005D0008E0F80930006F0E0E152FA4F8081809305
:1005E000BB00909100068091FF05981708F479CF21
:1005F00085E88093BC000AC085EC8093BC00109213
:100600004E0604C010924C060E949E00FF91EF918E
:10061000BF91AF919F918F917F916F915F914F911A
:100620003F912F910F900FBE0F901F9018950C9433
:100630009E290C949629AF92BF92CF92DF92EF92AF
:10064000FF920F931F93CF93DF93CDB7DEB7EA9757
:100650000FB6F894DEBF0FBECDBF8091AE051DA2D0
:100660001CA22CE131E03BA32AA31AAA9FEF99AB6D
:1006700018AA1BAA8DA71EA61FA61CA61BA684E04F
:100680008CAB82E08DAB81E08EAB80E18FAB80E202
:1006900088AF80E489AF80E88AAF8E010E5D1F4F7E
:1006A00020E044E064E1C8010E94310940E050E0EC
:1006B00063E0C8010E941D0861E0C8010E9417099B
:1006C00062E0C8010E94090B8BE39FE10197F1F7FB
:1006D000C8010E94110B41E062E0C8010E94680C51
:1006E0008091AA059091AB0501969093AB058093FC
:1006F000AA0561E575E0C8010E94660C6091AA0533
:100700007091AB05C8010E94710D6091AA057091AE
:10071000AB0583E796E00E94710D68E575E083E71D
:1007200096E00E946A096BE575E0C8010E94660CBC
:100730006091A4057091A505C8010E94710D80917A
:10074000A6059091A705019721F461E083E00E943E
:10075000AA0E8091A6059091A705029709F03CC0CA
:1007600061E083E00E94D90E8EE794E00E945E0D66
:1007700050E1E52EF12C67E2C62ED12C61E083E03A
:100780000E94AA0EC6010197F1F760E083E00E9483
:10079000AA0EC6010197F1F781E0E81AF10871F796
:1007A00083E892E70197F1F730E1E32EF12C47E27D
:1007B000C42ED12C61E083E00E94AA0EC6010197ED
:1007C000F1F760E083E00E94AA0EC6010197F1F7FD
:1007D00091E0E91AF10871F78091A6059091A705BB
:1007E0000397E1F561E083E00E94D90E84E894E08C
:1007F0000E945E0D81E2E0E3F1E0DE0111960190DE
:100800000D928A95E1F743E050E066E270E086EAF7
:100810009EE00E94A30A82E697E00E94E40AFE019D
:1008200031967F01E016F106C9F0F70181917F0151
:1008300043E050E066E270E0811107C088EC91E08F
:100840000E94A30A87EE91E006C088EC91E00E9426
:10085000A30A86E995E00E94E40AE4CF8091A60508
:100860009091A7050497A1F561E083E00E94D90E5D
:100870008CE894E00E945E0D43E050E068E270E096
:1008800080ED97E00E94A30A86EB9CE60E94E40AB2
:1008900043E050E068E270E086E891E00E94A30A3D
:1008A0008CE296E00E94E40A43E050E068E270E0E7
:1008B0008AE991E00E94A30A8CEF9DE00E94E40A7D
:1008C00043E050E068E270E080E991E00E94A30A12
:1008D0008091A6059091A705059709F044C061E0B5
:1008E00083E00E94D90E82E994E00E945E0D80E2CE
:1008F000E1E5F1E0DE01119601900D928A95E1F7B4
:1009000043E050E068E270E08CE093E20E94A30ACA
:1009100080E291E10E94E40A43E050E068E270E086
:1009200080E792E00E94A30ACE0101967C016E014D
:1009300091E2C90ED11CEC14FD04A9F0F7018191DC
:100940007F01811103C088EE91E002C080E496E04F
:100950000E94E40A43E050E068E270E088E592E03B
:100960000E94A30AE8CF8091A6059091A70506975B
:1009700039F561E083E00E94D90E8AE994E00E9493
:100980005E0D43E050E066E270E088EC92E30E9486
:10099000A30A88EB9BE00E94E40A27E0E22EF12CF8
:1009A00043E050E066E270E088EE93E00E94A30A24
:1009B00088EE93E00E94E40AF1E0EF1AF10881F773
:1009C0008091A6059091A705079709F047C061E0BF
:1009D00083E00E94D90E81EA94E00E945E0D84E1DA
:1009E000E1E7F1E0DE01119601900D928A95E1F7C1
:1009F00093E0E92EF12C5E0185E1A80EB11C43E0E5
:100A000050E068E270E080E199E00E94A30A8AE881
:100A100092E00E94E40AFE0131966F01AC14BD041D
:100A2000A9F0F60181916F0143E050E068E270E0C7
:100A3000811103C08FE392E002C087E994E00E9435
:100A4000A30A8AE892E00E94E40AE8CF80E197E2F4
:100A50000E94E40AF1E0EF1AF10889F664E670E01A
:100A600080E090E00E94450F60E083E00E94AA0EC3
:100A70006091A8057091A905072E000C880B990BB1
:100A80000E94450FEE24E394F12C89E00E94810E30
:100A9000892B09F04AC0C8010E94110B64E670E07E
:100AA00080E090E00E94450F40E060E0C8010E94B5
:100AB000680C60E675E0C8010E94660C41E062E0E7
:100AC000C8010E94680C6EE675E0C8010E94660CC1
:100AD00068EC70E080E090E00E94450F8BE00E949F
:100AE000810E892B91F6C8010E94110BF092AD0581
:100AF000E092AC0540E060E0C8010E94680C6AE743
:100B000075E0C8010E94660C60ED77E080E090E03F
:100B10000E94450F40E060E0C8010E94680C6DE84B
:100B200075E0C8010E94660CB0CFEA960FB6F89443
:100B3000DEBF0FBECDBFDF91CF911F910F91FF9010
:100B4000EF90DF90CF90BF90AF900895CF92DF925B
:100B5000EF92FF920F931F93CF93DF936C017A0173
:100B60008B01C0E0D0E0CE15DF0581F0D8016D919A
:100B70008D01D601ED91FC910190F081E02DC6012F
:100B80000995892B11F02196EECF7E01C701DF91E7
:100B9000CF911F910F91FF90EF90DF90CF9008952C
:100BA000FC01538D448D252F30E0842F90E0821B73
:100BB000930B541710F0CF96089501970895FC01F8
:100BC000918D828D981761F0828DDF01A80FB11D84
:100BD0005D968C91928D9F5F9F73928F90E00895A8
:100BE0008FEF9FEF0895FC01918D828D981731F062
:100BF000828DE80FF11D858D90E008958FEF9FEFB6
:100C00000895FC01918D228D892F90E0805C9F4F8B
:100C1000821B91098F739927089583E796E00E94BC
:100C2000010621E0892B09F420E0822F0895FC01C0
:100C3000848DDF01A80FB11DA35ABF4F2C91848D65
:100C400090E001968F739927848FA689B7892C939A
:100C5000A089B1898C91837080648C93938D848DED
:100C6000981306C00288F389E02D80818F7D8083F0
:100C70000895EF92FF920F931F93CF93DF93EC01B0
:100C800081E0888F9B8D8C8D981305C0E889F98948
:100C9000808185FD26C0F62E0B8D10E00F5F1F4F63
:100CA0000F731127E02E8C8DE8120CC00FB607FCD5
:100CB000FACFE889F989808185FFF5CFCE010E94BE
:100CC0001706F1CF8B8DFE01E80FF11DE35AFF4FA0
:100CD000F0829FB7F8940B8FEA89FB89808180624C
:100CE0000AC09FB7F894EE89FF896083E889F98983
:100CF00080818370806480839FBF81E090E0DF917A
:100D0000CF911F910F91FF90EF900895CF93DF93B4
:100D1000EC01888D8823C9F0EA89FB89808185FDF3
:100D200005C0A889B9898C9186FD0FC00FB607FC54
:100D3000F5CF808185FFF2CFA889B9898C9185FF95
:100D4000EDCFCE010E941706E7CFDF91CF91089536
:100D500080E090E0892B29F00E940D0681110C940F
:100D600000000895CF93DF934770552766277727B4
:100D7000FA013197EC01A881B981E730F10520F43F
:100D8000EC5CFF4F0C949A2C1496ED91FC91159706
:100D900061E029C01496ED91FC91159765E023C0A0
:100DA0001496ED91FC91159764E01DC01496ED9199
:100DB000FC91159766E017C01496ED91FC9115977C
:100DC00062E011C01496ED91FC9115976AE00BC09A
:100DD0001496ED91FC91159768E005C01496ED917D
:100DE000FC91159769E0DF91CF910994CF93DF9340
:100DF000EC01CB01BA0126E030E040E050E00E9477
:100E00007B2C623071058105910559F18CF46115D7
:100E1000710581059105F1F061307105810591053C
:100E2000C1F5E881F9810480F581E02D65E02DC0F0
:100E3000643071058105910511F1D4F065307105BB
:100E40008105910531F5E881F9810480F581E02D76
:100E500066E01BC0E881F9810480F581E02D64E043
:100E600014C0E881F9810480F581E02D61E00DC0B6
:100E7000E881F9810480F581E02D63E006C0E88116
:100E8000F9810480F581E02D62E0CE01DF91CF9100
:100E90000994DF91CF9108954370552766277727EE
:100EA000DC01ED91FC910480F581E02D423051058B
:100EB0006105710571F0433051056105710559F007
:100EC000413051056105710511F065E005C066E02E
:100ED00003C06AE001C069E00994CF93DF93EC019D
:100EE000CB01BA0123E030E040E050E00E947B2CCF
:100EF000613071058105910581F0623071058105D0
:100F0000910591F0672B682B692BC1F4E881F98179
:100F10000480F581E02D64E00DC0E881F981048052
:100F2000F581E02D61E006C0E881F9810480F5815A
:100F3000E02D62E0CE01DF91CF910994DF91CF9156
:100F400008954370552766277727DC01ED91FC91C2
:100F50000480F581E02D423051056105710571F085
:100F6000433051056105710559F041305105610566
:100F7000710511F062E005C063E003C061E001C0EB
:100F800060E00994CF93DF93EC0120E030E0A90109
:100F90006C897D898E899F890E94782B18161CF494
:100FA000E8A9F9A902C0EAA9FBA9DF91CF910994A8
:100FB0000F931F93DC011396EC910E2F10E0093074
:100FC0001105C0F5F801E55CFF4F0C949A2CDC018B
:100FD000ED91FC910084F185E02D29C0DC01ED91BB
:100FE000FC910284F385E02D22C0DC01ED91FC919F
:100FF0000484F585E02D1BC0DC01ED91FC91068495
:10100000F785E02D14C0DC01ED91FC910088F18999
:10101000E02D0DC0DC01ED91FC910288F389E02DFB
:1010200006C0DC01ED91FC910488F589E02D1F914B
:101030000F9109941F910F91089521E001C0220F93
:101040006A95EAF7DC011C962C931C971A965C9320
:101050004E931997ED91FC910484F585E02D60E0A5
:101060000994DC01ED91FC910684F785E02D41E0C7
:10107000099581E090E00895CF93DF93EC01E8813A
:10108000F9810480F581E02D8A81811102C060E040
:1010900001C062E0CE010995E881F9810480F58103
:1010A000E02D8A81811102C061E001C063E0CE01C0
:1010B00009958CA59DA50E94150FE881F9810480F2
:1010C000F581E02D8A81811102C060E001C062E0FB
:1010D000CE01DF91CF9109940E94B42CCF92DF9280
:1010E000EF92FF920F931F93CF93DF93EC019B81BD
:1010F000943041F0983031F0933031F0963021F057
:1011000012E003C014E001C013E02496E12CF12C9E
:10111000C62ED12C01E0C6010E2C02C095958795F4
:101120000A94E2F76C8180FD602789910E94AA0EE3
:101130008FEFE81AF80AE11670F3DF91CF911F9153
:101140000F91FF90EF90DF90CF900895CF93DF93B2
:10115000FC012381222359F1EC0161E084810E948A
:10116000D90E61E08D810E94D90E8B81843011F0FF
:10117000883039F461E08E810E94D90E61E08F8160
:1011800006C0833011F0863021F461E08E810E9428
:10119000D90E8FA58F3F59F061E00E94D90E6EA540
:1011A00081E068278FA5DF91CF910C94AA0EDF9183
:1011B000CF910895CF93DF93FC0123812223A9F0DF
:1011C000EC010190F081E02D0480F581E02D60E0DC
:1011D00009958FA58F3F49F061E00E94D90E6EA559
:1011E0008FA5DF91CF910C94AA0EDF91CF91089536
:1011F0000F931F93CF93DF93062F0F70423019F494
:1012000040E0602F0EC0142FEC0170E084E0759573
:1012100067958A95E1F7CE010E94510E412F602F0C
:10122000CE01DF91CF911F910F910C94510EFC01D3
:1012300084858823A9F0218532852115310519F48B
:10124000611106C007C02130310521F4611102C0CF
:10125000858701C015866585CF010E960C94070D14
:101260000895FF920F931F93CF93DF93EC01162FF6
:10127000042FF22E8B85888B0E942C0D888991E09B
:1012800090934F068093710610925006109272064A
:101290000E94AB0C91E0811190E0998B811105C007
:1012A00080E197E00E94E2008E878989882339F0E7
:1012B0001F861C8260E0CE010E960E94070D2F2D26
:1012C000402F612FCE01DF91CF911F910F91FF90A1
:1012D0000C945E016115710579F0FB01019000200D
:1012E000E9F73197AF01461B570BDC01ED91FC91FB
:1012F0000280F381E02D099480E090E008958F92C0
:101300009F92AF92BF92EF92FF920F931F93CF9352
:10131000DF93CDB7DEB7A1970FB6F894DEBF0FBE4F
:10132000CDBF7C01FA01CB0119A2223008F42AE0DA
:101330008E010F5D1F4F822E912CA12CB12CBF016D
:10134000A50194010E94592CF901CA01015011090B
:101350006A3014F4605D01C0695CD8016C93232B82
:10136000242B252B61F7B801C7010E946A09A196B9
:101370000FB6F894DEBF0FBECDBFDF91CF911F91A6
:101380000F91FF90EF90BF90AF909F908F90089536
:101390001F920F920FB60F9211242F933F934F93EA
:1013A0005F936F937F938F939F93AF93BF93EF93CD
:1013B000FF9383E796E00E941706FF91EF91BF919C
:1013C000AF919F918F917F916F915F914F913F91DD
:1013D0002F910F900FBE0F901F9018951F920F9294
:1013E0000FB60F9211242F938F939F93EF93FF9338
:1013F000E0918306F09184068081E0918906F09166
:101400008A0682FD12C0908180918C068F5F8F7357
:1014100020918D06821751F0E0918C06F0E0ED5896
:10142000F94F958F80938C0601C08081FF91EF91D9
:101430009F918F912F910F900FBE0F901F90189535
:101440004F925F926F927F928F929F92AF92BF92D4
:10145000CF92DF92EF92FF92CF93DF93EC016A017C
:101460007B0120E030E0A901C701B6010E94192AE2
:1014700087FF04C0F7FAF094F7F8F0948C8C9D8CF9
:10148000AE8CBF8CA7019601C501B4010E94192A38
:10149000882309F449C06CA97DA98EA99FA90E943F
:1014A000C82A2B013C01A7019601C501B4010E9485
:1014B0001E2A9B01AC01C301B2010E947D2B0E9438
:1014C000902A6CAB7DAB8EAB9FABA701960160E021
:1014D00070E080E090E40E941E2A0E94F02B26E536
:1014E0003EE04DE25FE30E947D2B20E034E244E7E2
:1014F00059E40E947D2B68AF79AF8AAF9BAFCC8E49
:10150000DD8EEE8EFF8ECE01DF91CF91FF90EF90BA
:10151000DF90CF90BF90AF909F908F907F906F9013
:101520005F904F900C94190BDF91CF91FF90EF904B
:10153000DF90CF90BF90AF909F908F907F906F90F3
:101540005F904F9008958F929F92AF92BF92CF92EB
:10155000DF92EF92FF921F93CF93DF936C01142FD2
:1015600084EF91E00E94452CEB0124970E94200F0C
:101570004B015C01E12CF12C0E94200FDC01CB011E
:1015800088199909AA09BB09C816D906EA06FB06F3
:1015900078F061E0812F0E94AA0ECE010E94150F03
:1015A00060E0812F0E94AA0ECE010E94150FE4CFA9
:1015B000DF91CF911F91FF90EF90DF90CF90BF9080
:1015C000AF909F908F9008958F929F92AF92BF920D
:1015D000CF92DF92EF92FF926C010E94200F4B019D
:1015E0005C01E12CF12C0E94200FDC01CB01881959
:1015F0009909AA09BB09C816D906EA06FB0698F795
:10160000FF90EF90DF90CF90BF90AF909F908F9022
:101610000895DC01ED91FC910684F785E02D40E012
:10162000099461E00E94090B8BE39FE10197F1F7B8
:1016300008954F925F926F927F928F929F92AF9296
:10164000BF92CF92DF92EF92FF920F931F93CF93AF
:10165000DF93EC01C888D988EA88FB888C859D8552
:10166000AE85BF85C81AD90AEA0AFB0A6C897D894A
:101670008E899F899B01AC010E947D2B4B015C01EF
:101680006C8D7D8D8E8D9F8D9B01AC010E94AD294F
:101690009B01AC01C501B4010E941E2A0E94902A40
:1016A000C114D104E104F10499F46230710581059B
:1016B00091050CF076C01CA21DA21EA21FA21C8ABE
:1016C0001D8A1E8A1F8A1CAA1DAA1EAA1FAAEDC057
:1016D0000CA91DA92EA93FA91C141D041E041F043A
:1016E000FCF410161106120613064CF46C157D0559
:1016F0008E059F054CF52A81211153C025C0011587
:1017000011052105310509F44CC06C157D058E05C8
:101710009F050CF046C08A81882309F442C036C078
:101720001016110612061306ECF400271127980173
:101730000C191D092E093F096017710782079307CD
:101740001CF42A81222369F19B01AC018827992787
:10175000DC01821B930BA40BB50B8CAB9DABAEAB2A
:10176000BFAB1FC00115110521053105D1F088243B
:10177000992454018C189D08AE08BF086815790596
:101780008A059B0574F48A8181110BC030952095E0
:10179000109501951F4F2F4F3F4F0CAB1DAB2EAB3C
:1017A0003FAB8CA89DA8AEA8BFA881149104A1044A
:1017B000B10489F488AD99ADAAADBBAD8CAF9DAF36
:1017C000AEAFBFAF81E01C141D041E041F040CF05B
:1017D00080E08A833FC0CCACDDACEEACFFACA701AF
:1017E0009601C701B6010E94AD292B013C01C5013C
:1017F000B4010E94C82A20E030E040E850E40E9492
:101800007D2B20E030E040E85FE30E94AD299B01A2
:10181000AC01C301B2010E941E2A9B01AC01C701A9
:10182000B6010E94AC293B016C01FE01E05CFF4F58
:10183000E080F180028113819701A8010E94782B3A
:10184000181614F473018601C701D8018CAF9DAF3F
:10185000AEAFBFAF3FEF831A930AA30AB30A8CAAB5
:101860009DAAAEAABFAACCACDDACEEACFFACC70162
:10187000B6010E94972A6CA37DA38EA39FA3A70104
:10188000960160E074E284E799E40E941E2A6C8B62
:101890007D8B8E8B9F8B2A81211107C0DC01CB01B0
:1018A000B0588C8B9D8BAE8BBF8BDF91CF911F91EE
:1018B0000F91FF90EF90DF90CF90BF90AF909F90EF
:1018C0008F907F906F905F904F9008950C946A096D
:1018D000CF93DF93CDB7DEB728970FB6F894DEBF6E
:1018E0000FBECDBFFC018091850190918601A09132
:1018F0008701B09188018D839E83AF83B8878091E3
:10190000890190918A01A0918B01B0918C0189830A
:101910009A83AB83BC838781481710F04FEF480F41
:10192000908550E0DE01A40FB51F903129F484307A
:1019300019F411969C9102C015969C91690F6068EC
:10194000CF0128960FB6F894DEBF0FBECDBFDF9152
:10195000CF910C94090B30917206313208F04BC0D4
:1019600080914E068111FCCF9091710622E0209368
:101970004E0621E020934D062FEF20934C06109247
:101980004B0630934A06E1E5F6E0AAE2B6E020E035
:10199000321721F041914D932F5FFACF1092290613
:1019A00020912906990F922B909329069091280651
:1019B000913061F410922806909129069093BB0013
:1019C0009091BC0093FDF8CF95EC01C095EE9093FB
:1019D000BC0090914E069230E1F390914C069F3FEF
:1019E00079F080914C06803241F080914C06803332
:1019F00031F084E005C081E003C082E001C083E0F3
:101A0000109250061092720610924F060895FC0133
:101A100083818823C1F0962F61816095692360835B
:101A2000828191E090934F06809371061092500648
:101A30001092720680E197E00E942B010E94AB0C8D
:101A4000282F30E002C020E030E081E090E0232B3E
:101A500011F080E090E0089510922706109226067B
:101A6000109250061092720610924E0681E08093FA
:101A70004D061092280661E082E10E94AA0E61E004
:101A800083E10E94AA0EE9EBF0E080818E7F8083E3
:101A900080818D7F808388E48093B80085E4809383
:101AA000BC0080ED90E0909325068093240681EDA4
:101AB00090E090932306809322060895CF93DF93BE
:101AC000BC0183E796E00E946A09EC0168E575E0D5
:101AD00083E796E00E946A098C0F9D1FDF91CF91EA
:101AE0000895CF92DF92EF92FF920F931F93CF93BF
:101AF000DF936B01770FEE08FF08F7FE1FC0EC01C4
:101B0000E881F9810190F081E02D6DE209958C0169
:101B100044275527BA014C195D096E097F092AE04F
:101B2000CE010E947F09800F911FDF91CF911F91FD
:101B30000F91FF90EF90DF90CF9008952AE0B701CA
:101B4000A601DF91CF911F910F91FF90EF90DF9051
:101B5000CF900C947F09CF92DF92EF92FF92CF93B8
:101B6000DF93EC0188899989AA89BB8948175907AD
:101B70006A077B0739F0488B598B6A8B7B8BCE01C8
:101B80000E94190B8CA19DA1AEA1BFA1892B8A2B0C
:101B90008B2BB9F10E94200F6B017C0188A599A5C0
:101BA000AAA5BBA5B701A601481B590B6A0B7B0B65
:101BB0008CA19DA1AEA1BFA1481759076A077B0759
:101BC00000F12A818C859D85AE85BF85222321F079
:101BD0000196A11DB11D03C00197A109B1098C8710
:101BE0009D87AE87BF874C855D856E857F85CE01DD
:101BF0000E94D807C8A6D9A6EAA6FBA6CE010E94D5
:101C0000190B20E030E0A9016C897D898E899F89BC
:101C10000E94192A8111B6CF488959896A897B891E
:101C20008C859D85AE85BF85481759076A077B0758
:101C300009F0A8CFDF91CF91FF90EF90DF90CF9088
:101C40000895462F50E060E070E02AE00C947F0990
:101C5000833081F028F4813099F08230A1F008952A
:101C60008730A9F08830B9F08430D1F480918000B9
:101C70008F7D03C0809180008F77809380000895CE
:101C800084B58F7702C084B58F7D84BD089580911F
:101C9000B0008F7703C08091B0008F7D8093B0003B
:101CA0000895EF92FF920F931F93CF938C01FC0145
:101CB00084E0C0E060FF02C09589C92B6695815021
:101CC00031968111F7CF413011F4F8014489F801C0
:101CD0008585C82BC42B7801FEE0EF0EF11CF801BE
:101CE00062896C2BC7010E94070DF801628960951B
:101CF0006C23C701CF911F910F91FF90EF900C942F
:101D0000070DCF93DF93282F30E0F901E253FF4F07
:101D10008491F901E654FF4FD491F901EA55FF4F40
:101D2000C491CC2391F081110E94280EEC2FF0E099
:101D3000EE0FFF1FE456FF4FA591B491EC91ED23F8
:101D400081E090E021F480E002C080E090E0DF914B
:101D5000CF9108951F93CF93DF93282F30E0F9019F
:101D6000E253FF4F8491F901E654FF4FD491F901FA
:101D7000EA55FF4FC491CC23C1F0162F81110E9468
:101D8000280EEC2FF0E0EE0FFF1FEE56FF4FA5914F
:101D9000B4919FB7F894111104C08C91D095D823B9
:101DA00002C0EC91DE2BDC939FBFDF91CF911F919E
:101DB0000895CF93DF9390E0FC01E654FF4F249108
:101DC000FC01EA55FF4F8491882361F190E0880F70
:101DD000991FFC01E857FF4FC591D491FC01EE56C5
:101DE000FF4FA591B491611109C09FB7F894888104
:101DF000209582238883EC912E230BC0623061F4FE
:101E00009FB7F8948881322F309583238883EC9193
:101E10002E2B2C939FBF06C08FB7F894E8812E2BF2
:101E200028838FBFDF91CF9108958230910538F0DC
:101E3000880F991F880F991F05970197F1F708954B
:101E40003FB7F8948091A9079091AA07A091AB079A
:101E5000B091AC0726B5A89B05C02F3F19F001969D
:101E6000A11DB11D3FBFBA2FA92F982F8827820F20
:101E7000911DA11DB11DBC01CD0142E0660F771F70
:101E8000881F991F4A95D1F708958F929F92AF921C
:101E9000BF92CF92DF92EF92FF926B017C010E9482
:101EA000200F4B015C01C114D104E104F104F1F0F5
:101EB0000E94200FDC01CB0188199909AA09BB09EE
:101EC000883E9340A105B10570F321E0C21AD10804
:101ED000E108F10888EE880E83E0981EA11CB11C71
:101EE000C114D104E104F10419F7DDCFFF90EF90A4
:101EF000DF90CF90BF90AF909F908F9008951F92EA
:101F00000F920FB60F9211242F933F938F939F93AD
:101F1000AF93BF938091A5079091A607A091A707C3
:101F2000B091A8073091A40723E0230F2D3720F4A8
:101F30000196A11DB11D05C026E8230F0296A11D23
:101F4000B11D2093A4078093A5079093A607A093A3
:101F5000A707B093A8078091A9079091AA07A0911D
:101F6000AB07B091AC070196A11DB11D8093A907E5
:101F70009093AA07A093AB07B093AC07BF91AF9122
:101F80009F918F913F912F910F900FBE0F901F90B7
:101F90001895CF93DF93CDB7DEB769970FB6F89456
:101FA000DEBF0FBECDBF789484B5826084BD84B59A
:101FB000816084BD85B5826085BD85B5816085BD44
:101FC00080916E00816080936E00109281008091FC
:101FD0008100826080938100809181008160809384
:101FE0008100809180008160809380008091B100A9
:101FF00084608093B1008091B00081608093B000D4
:1020000080917A00846080937A0080917A00826067
:1020100080937A0080917A00816080937A00809129
:102020007A00806880937A001092C100E091830664
:10203000F091840682E08083E0917F06F091800633
:102040001082E0918106F09182068FEC80831092DD
:102050008B06E0918706F091880686E08083E09108
:102060008506F0918606808180618083E0918506F7
:10207000F0918606808188608083E0918506F091EA
:102080008606808180688083E0918506F0918606CF
:1020900080818F7D80830E942C0D81E08093B0052C
:1020A00001E050E8F52E1091B0051F37D0F40093F1
:1020B0004F061093710610925006109272060E94FD
:1020C000AB0C811108C0812F90E09093AF058093F5
:1020D000AE05F092B0058091B0058F5F8093B0059A
:1020E000E2CF8091AE051C821B822CE131E03A8365
:1020F0002983198A9FEF988B1F861A8A8C871D86E1
:102100001E861B861A8684E08B8B82E08C8B81E096
:102110008D8B80E18E8B80E28F8B80E4888F80E8CE
:10212000898F20E044E064E1CE0101960E943109EC
:1021300040E050E063E0CE0101960E941D0861E09E
:10214000CE0101960E94170962E0CE0101960E941D
:10215000090B8BE39FE10197F1F720E030E04AE7BC
:1021600054E4609178077091790780917A07909193
:102170007B070E94192A882309F44FC080E090E071
:10218000AAE7B4E48093780790937907A0937A073D
:10219000B0937B078093A0079093A107A093A20719
:1021A000B093A3078091940790919507A09196070B
:1021B000B0919707181619061A061B0674F5609158
:1021C00074077091750780917607909177079B014E
:1021D000AC010E947D2B6B017C0160917C077091AA
:1021E0007D0780917E0790917F079B01AC010E9443
:1021F000AD299B01AC01C701B6010E941E2A0E94B5
:10220000902A609394077093950780939607909314
:10221000970780E697E00E94190B40E050E068E4E1
:1022200073E480E697E00E94200A20E030E44CE965
:1022300055E460913407709135078091360790918D
:1022400037070E94192A882309F453C080E090E4DC
:10225000ACE9B5E48093340790933507A093360733
:10226000B093370780E090E0A8E4B3E480935C0784
:1022700090935D07A0935E07B0935F07809150072E
:1022800090915107A0915207B09153071816190663
:102290001A061B0674F56091300770913107809122
:1022A0003207909133079B01AC010E947D2B6B019B
:1022B0007C01609138077091390780913A079091BD
:1022C0003B079B01AC010E94AD299B01AC01C701FA
:1022D000B6010E941E2A0E94902A609350077093B4
:1022E000510780935207909353078CE197E00E9427
:1022F000190B40E050E06AE774E48CE197E00E943B
:10230000200A10926C0710926D0710926E071092BF
:102310006F07109270071092710710927207109257
:1023200073071092940710929507109296071092D7
:1023300097071092840710928507109286071092D3
:102340008707109274071092750710927607109203
:102350007707109228071092290710922A071092E7
:102360002B0710922C0710922D0710922E07109217
:102370002F07109250071092510710925207109297
:102380005307109240071092410710924207109293
:1023900043071092300710923107109232071092C3
:1023A000330762E08BE00E94D90E62E08AE00E946F
:1023B000D90E62E089E00E94D90E61E083E00E94BC
:1023C000D90E81E090E00E941903873611F00C9439
:1023D0004F2382E090E00E941903853611F00C949F
:1023E0004F2383E090E00E941903853611F00C948E
:1023F0004F2381E090E09093BE058093BD058091CE
:10240000AE051C821B822CE131E03A832983198AB4
:102410009FEF988B1F861A8A8C871D861E861B86C7
:102420001A8684E08B8B82E08C8B81E08D8B80E13F
:102430008E8B80E28F8B80E4888F80E8898F20E00C
:1024400044E064E1CE0101960E94310940E050E091
:1024500063E0CE0101960E941D0861E0CE01019665
:102460000E94170932E0632E712C42E0242E312C99
:102470008091BD059091BE05009711F40C94DD1E6E
:102480008130910509F099C090930101809300017A
:10249000CE0101960E94110B40E060E0CE01019652
:1024A0000E94680C67ED71E0CE0101960E94660CF7
:1024B00041E060E0CE0101960E94680C67EE71E099
:1024C000CE0101960E94660C42E063E0CE010196C7
:1024D0000E94680C66EF71E0CE0101960E94660CC6
:1024E00089E00E94810E892B89F46AE070E080E027
:1024F00090E00E94450FF4CF8AE00E94810E892B64
:1025000059F08BE00E94810E892B79F089E00E94BE
:10251000810E019789F337C040910001509101016C
:102520004230510574F70C945824409100015091A9
:1025300001014230510554F360E0CE0101960E9442
:10254000680C61E475E0CE0101960E94660C409132
:1025500000015091010141505109509301014093F4
:10256000000160E0CE0101960E94680C6AE672E00C
:10257000CE0101960E94660C6CE271E080E090E072
:102580000E94450FC3CF80910001909101018130DD
:10259000910529F47092BE056092BD0508C00297AE
:1025A00031F483E090E09093BE058093BD056CE22A
:1025B00071E080E090E00E94450F8091BD05909110
:1025C000BE05029709F09CC0CE0101960E94110B36
:1025D00040E060E0CE0101960E94680C6FEF71E070
:1025E000CE0101960E94660C41E063E0CE010196A7
:1025F0000E94680C63E172E0CE0101960E94660CB5
:1026000042E063E0CE0101960E94680C60E272E055
:10261000CE0101960E94660C1092010110920001F9
:1026200089E00E94810E892B89F46AE070E080E0E5
:1026300090E00E94450FF4CF8AE00E94810E892B22
:1026400059F08BE00E94810E892B79F089E00E947D
:10265000810E019789F337C040910001509101012B
:102660004230510574F70C94802440910001509140
:1026700001011416150654F760E0CE0101960E9480
:10268000680C61E475E0CE0101960E94660C4091F1
:1026900000015091010141505109509301014093B3
:1026A000000160E0CE0101960E94680C6AE672E0CB
:1026B000CE0101960E94660C6CE271E080E090E031
:1026C0000E94450FC3CF80910001909101010097B6
:1026D00019F485E190E00AC08130910519F486E192
:1026E00090E004C0029731F481E090E09093BE0541
:1026F0008093BD056CE271E080E090E00E94450FA0
:102700008091BD059091BE05039709F0FCC0CE01F4
:1027100001960E94110B40E060E0CE0101960E94FC
:10272000680C66E272E0CE0101960E94660C41E000
:1027300063E0CE0101960E94680C68E372E0CE016E
:1027400001960E94660C42E063E0CE0101960E9471
:10275000680C67E472E0CE0101960E94660C43E0CB
:1027600063E0CE0101960E94680C68E572E0CE013C
:1027700001960E94660C109201011092000189E0FE
:102780000E94810E892B39F46AE070E080E090E0CD
:102790000E94450FF4CF04E010E089E00E94810E12
:1027A000019709F08DC04091000160E0CE010196D3
:1027B0000E94680C61E475E0CE0101960E94660CEF
:1027C00066E970E080E090E00E94450F40910001D2
:1027D0005091010144305105F4F460E0CE010196BE
:1027E0000E94680C6AE672E0CE0101960E94660CB7
:1027F00066E970E080E090E00E94450F40910001A2
:1028000060E0CE0101960E94680C61E475E0CE01A3
:1028100001960E94660C809100019091010104973D
:10282000F1F443E060E1CE0101960E94680C6FE391
:1028300075E0CE0101960E94660C66E970E080E0CA
:1028400090E00E94450F43E060E1CE0101960E94B6
:10285000680C64EA72E0CE0101960E94660C8AE080
:102860000E94810E892B49F4809100019091010111
:102870008530910514F40C94A8248BE00E94810EFD
:10288000892B41F4809100019091010197FD02C0D4
:102890000C94AF248091000190910101059721F4DF
:1028A00010920101109200018091000190910101AC
:1028B000019609F072CF10930101009300016DCFD2
:1028C0008091000190910101009719F487E190E057
:1028D00016C08130910519F48FE190E010C082306C
:1028E000910519F482E290E00AC08330910519F451
:1028F00083E290E004C0049731F481E090E090938B
:10290000BE058093BD058091BD059091BE0545979C
:1029100009F018C184E690E00E94190390E09093BA
:10292000AD058093AC0585E690E00E94190390E028
:102930009093AB058093AA0586E690E00E94190368
:1029400090E09093BC058093BB05CE0101960E9458
:10295000110B40E060E0CE0101960E94680C6DE62C
:1029600072E0CE0101960E94660C41E061E0CE016A
:1029700001960E94680C6AE772E0CE0101960E94FF
:10298000660C42E061E0CE0101960E94680C6EE8A0
:1029900072E0CE0101960E94660C6091AC057091C8
:1029A000AD05CE0101960E94710D60E972E0CE0185
:1029B00001960E94660C6091AA057091AB05CE014C
:1029C00001960E94710D60E972E0CE0101960E94AD
:1029D000660C6091BB057091BC05CE0101960E940A
:1029E000710D6CE872E0CE0101960E94660C43E026
:1029F00060E0CE0101960E94680C64E972E0CE01AD
:102A000001960E94660C709201016092000189E0BB
:102A10000E94810E892B09F046C06AE070E080E0D8
:102A200090E00E94450FF3CF89E00E94810E8C0157
:102A3000019799F543E060E1CE0101960E94680C90
:102A40006FE375E0CE0101960E94660C64E670E0CB
:102A500080E090E00E94450F43E060E1CE010196E6
:102A60000E94680C64EA72E0CE0101960E94660C36
:102A700068EC70E080E090E00E94450F8BE00E94DF
:102A8000810E892B21F410930101009300018091A4
:102A9000000190910101029739F28091000190911B
:102AA0000101019731F089E00E94810E019779F3CD
:102AB00035C089E00E94810E0197A9F743E060E0EC
:102AC000CE0101960E94680C6EE375E0CE0101967E
:102AD0000E94660C64E670E080E090E00E94450F82
:102AE00043E060E0CE0101960E94680C69EA72E062
:102AF000CE0101960E94660C68EC70E080E090E0E8
:102B00000E94450F8AE00E94810E892B31F682E0F7
:102B100090E09093010180930001BFCF809100016C
:102B2000909101018230910539F481E090E0909319
:102B3000BE058093BD0506C0019721F41092BE0525
:102B40001092BD058091BD059091BE0546970297F4
:102B500008F0B7C681E090E09093010180930001F6
:102B60009093BA058093B90524E0A22EB12C8CE095
:102B7000E82EF12C94E0C92ED12C88248394912C3A
:102B80008091B9059091BA05009709F40CC201979C
:102B900009F0A4C0CE0101960E94110B40E060E054
:102BA000CE0101960E94680C8091BD059091BE05F2
:102BB000469731F46FEA72E0CE0101960E94660CEE
:102BC0008091BD059091BE05479731F460EC72E0AD
:102BD000CE0101960E94660C08E010E05524539443
:102BE000452D63E0CE0101960E94680CC8010E9449
:102BF0001903682FCE0101960E94210E60E972E050
:102C0000CE0101960E94660CC80101960E9419032C
:102C1000682FCE0101960E94210E60E972E0CE017C
:102C200001960E94660CC80102960E941903682F43
:102C3000CE0101960E94210E53940D5F1F4F94E028
:102C40005912CECF89E00E94810E892B79F56AE076
:102C500070E080E090E00E94450FF4CF40910001C9
:102C600050910101CA018B7F892B29F160E0CE01CF
:102C700001960E94680C6AE672E0CE0101960E94FD
:102C8000660C8AE00E94810E892B49F44091000174
:102C9000509101014430510514F40C94C0248BE090
:102CA0000E94810E892B11F40C94B62489E00E94B5
:102CB000810E019799F289E00E94810E892B21F4FF
:102CC0001092BA051092B90580910001909101010E
:102CD000892B21F4F0920101E09200018091B90565
:102CE0009091BA05029709F070C0CE0101960E943A
:102CF000110B40E060E0CE0101960E94680C8091CB
:102D0000BD059091BE05469731F463ED72E0CE01AA
:102D100001960E94660C8091BD059091BE05479773
:102D200031F464EE72E0CE0101960E94660C01E17E
:102D300010E055245394452D63E0CE0101960E9486
:102D4000680CC8010E941903682FCE0101960E94E9
:102D5000210E60E972E0CE0101960E94660CC80166
:102D600001960E941903682FCE0101960E94210E40
:102D700060E972E0CE0101960E94660CC8010296DD
:102D80000E941903682FCE0101960E94210E5394D0
:102D90000D5F1F4F0A31110571F689E00E94810E07
:102DA000019751F44091000150910101CA018B7FBC
:102DB000039711F00C94302589E00E94810E892B35
:102DC00021F41092BA051092B9058091B90590913D
:102DD000BA05039709F072C0CE0101960E94110B4B
:102DE00040E060E0CE0101960E94680C8091BD0534
:102DF0009091BE05469731F467EF72E0CE010196DF
:102E00000E94660C8091BD059091BE05479731F4F4
:102E100068E073E0CE0101960E94660C0AE110E0C2
:102E200055245394452D63E0CE0101960E94680C11
:102E3000C8010E941903682FCE0101960E94210E3D
:102E400060E972E0CE0101960E94660CC80101960D
:102E50000E941903682FCE0101960E94210E60E99D
:102E600072E0CE0101960E94660CC80102960E9493
:102E70001903682FCE0101960E94210E53940D5F15
:102E80001F4F0332110571F689E00E94810E0197F0
:102E900061F400910001109101010630110529F043
:102EA0000A30110511F00C94CD2589E00E94810EA5
:102EB000892B21F41092BA051092B9058091B905B9
:102EC0009091BA05049709F05BCECE0101960E945D
:102ED000110B40E060E0CE0101960E94680C8091E9
:102EE000BD059091BE05469731F46BE173E0CE01CC
:102EF00001960E94660C8091BD059091BE05479792
:102F000031F46EE273E0CE0101960E94660C03E29A
:102F100010E099249394492D63E0CE0101960E941C
:102F2000680CC8010E941903682FCE0101960E9407
:102F3000210E60E972E0CE0101960E94660CC80184
:102F400001960E941903682FCE0101960E94210E5E
:102F500060E972E0CE0101960E94660CC8010296FB
:102F60000E941903682FCE0101960E94210E9394AE
:102F70000D5F1F4F0C32110571F688248394912C3C
:102F800089E00E94810E00910001109101010197DA
:102F900011F00C94DA26C8018B7F099711F00C947C
:102FA00071260C94DA268091BD059091BE05469756
:102FB00009F067C180910001909101018C01000F1F
:102FC000111F080F191F780195E0E90EF11CC701C8
:102FD0000E94190390E09093AD058093AC05C80161
:102FE00006960E94190390E09093AB058093AA0582
:102FF000C80107960E94190390E09093BC05809346
:10300000BB05F092BA05E092B905CE0101960E9487
:10301000110B40E060E0CE0101960E94680C63E471
:1030200073E0CE0101960E94660C41E060E0CE01A3
:1030300001960E94680C62E573E0CE0101960E9441
:10304000660C6091AC057091AD05CE0101960E94B1
:10305000710D42E060E0CE0101960E94680C6CE5C3
:1030600073E0CE0101960E94660C6091AA057091F2
:10307000AB05CE0101960E94710D43E060E0CE01E8
:1030800001960E94680C66E673E0CE0101960E94EC
:10309000660C6091BB057091BC05CE0101960E9443
:1030A000710D42E061E1CE0101960E94680C60E77B
:1030B00073E0CE0101960E94660C43E062E1CE010E
:1030C00001960E94680C64E773E0CE0101960E94AD
:1030D000660C709201016092000189E00E94810EED
:1030E000892B09F067C06AE070E080E090E00E9400
:1030F000450FF3CF8BE00E94810E892B09F461C04C
:103100008AE00E94810E892B09F465C0809100013C
:1031100090910101019721F542E061E1CE01019614
:103120000E94680C60E475E0CE0101960E94660C76
:1031300064E670E080E090E00E94450F42E061E1CB
:10314000CE0101960E94680C60E773E0CE01019603
:103150000E94660C68EC70E080E090E00E94450FF1
:103160008091000190910101029721F543E061E116
:10317000CE0101960E94680C60E475E0CE010196D4
:103180000E94660C64E670E080E090E00E94450FCB
:1031900043E062E1CE0101960E94680C64E773E0AF
:1031A000CE0101960E94660C68EC70E080E090E031
:1031B0000E94450F89E00E94810E019709F49ACF81
:1031C00014C080910001909101018230910514F0AA
:1031D0000C942C2795CF80910001909101018230B1
:1031E00091050CF093CF0C943327809100019091BE
:1031F00001018230910539F481E090E09093BE05A1
:103200008093BD053EC00197E1F51092BE05109276
:10321000BD0584E690E00E941903182F8091B9053E
:103220009091BA050E941903181729F0682F84E6B7
:1032300090E00E94170385E690E00E941903182F82
:103240008091B9059091BA0501960E94190318174B
:1032500029F0682F85E690E00E94170386E690E04B
:103260000E941903182F8091B9059091BA05029612
:103270000E941903181729F0682F86E690E00E9433
:1032800017038091BD059091BE05479709F019C3BA
:1032900080910001909101018C01000F111F080F16
:1032A000191FC80105969093BA058093B9050E942D
:1032B000190390E09093AD058093AC05C801069684
:1032C0000E94190390E09093AB058093AA05C80172
:1032D00007960E94190390E09093BC058093BB056C
:1032E000CE0101960E94110B40E060E0CE010196F4
:1032F0000E94680C67E773E0CE0101960E94660C9D
:1033000041E060E0CE0101960E94680C6CE873E039
:10331000CE0101960E94660C6091AC057091AD05DE
:10332000CE0101960E94710D42E060E0CE0101964F
:103330000E94680C66E973E0CE0101960E94660C5B
:1033400089E00E94810E892B89F56AE070E080E0B7
:1033500090E00E94450FF4CF8AE00E94810E892BF5
:1033600059F18BE00E94810E892B81F142E06AE0E5
:10337000CE0101960E94680C60E475E0CE010196D2
:103380000E94660C42E069E0CE0101960E94680C42
:103390006091AC057091AD05CE0101960E94710D52
:1033A00068EC70E080E090E00E94450F89E00E94A8
:1033B000810E019789F214C08091AC059091AD0502
:1033C0008830910514F00C943A27CBCF8091AC054E
:1033D0009091AD058038910514F40C944227C6CF26
:1033E000CE0101960E94110B40E060E0CE010196F3
:1033F0000E94680C60EA73E0CE0101960E94660CA0
:1034000041E060E0CE0101960E94680C6CE873E038
:10341000CE0101960E94660C6091AA057091AB05E1
:10342000CE0101960E94710D42E060E0CE0101964E
:103430000E94680C66E973E0CE0101960E94660C5A
:1034400089E00E94810E892B89F56AE070E080E0B6
:1034500090E00E94450FF4CF8AE00E94810E892BF4
:1034600059F18BE00E94810E892B81F142E06AE0E4
:10347000CE0101960E94680C60E475E0CE010196D1
:103480000E94660C42E069E0CE0101960E94680C41
:103490006091AA057091AB05CE0101960E94710D55
:1034A00060E570E080E090E00E94450F89E00E94B6
:1034B000810E019789F214C08091AA059091AB0505
:1034C0001816190614F40C944A27CBCF8091AA053C
:1034D0009091AB058B34910514F40C945127C6CF11
:1034E000CE0101960E94110B40E060E0CE010196F2
:1034F0000E94680C60EB73E0CE0101960E94660C9E
:1035000041E060E0CE0101960E94680C6CE873E037
:10351000CE0101960E94660C6091BB057091BC05BE
:10352000CE0101960E94710D42E060E0CE0101964D
:103530000E94680C66E973E0CE0101960E94660C59
:1035400089E00E94810E892B89F56AE070E080E0B5
:1035500090E00E94450FF4CF8AE00E94810E892BF3
:1035600059F18BE00E94810E892B81F142E06AE0E3
:10357000CE0101960E94680C60E475E0CE010196D0
:103580000E94660C42E069E0CE0101960E94680C40
:103590006091BB057091BC05CE0101960E94710D32
:1035A00068EC70E080E090E00E94450F89E00E94A6
:1035B000810E019789F214C08091BB059091BC05E2
:1035C0008230910514F00C945827CBCF8091BB0525
:1035D0009091BC058032910514F40C945F27C6CFFE
:1035E000CE0101960E94110B40E060E0CE010196F1
:1035F0000E94680C60EC73E0CE0101960E94660C9C
:1036000041E060E0CE0101960E94680C62ED73E03B
:10361000CE0101960E94660C8091B9059091BA0581
:103620000E941903682FCE0101960E94210E6AEDB7
:1036300073E0CE0101960E94660C8091B9059091CD
:10364000BA0501960E941903682FCE0101960E94C7
:10365000210E6AED73E0CE0101960E94660C809106
:10366000B9059091BA0502960E941903682FCE0100
:1036700001960E94210E42E060E0CE0101960E9478
:10368000680C6CED73E0CE0101960E94660C6091AF
:10369000AC057091AD05CE0101960E94710D6AEDE9
:1036A00073E0CE0101960E94660C6091AA057091AC
:1036B000AB05CE0101960E94710D6AED73E0CE015B
:1036C00001960E94660C6091BB057091BC05CE010D
:1036D00001960E94710D43E060E0CE0101960E94C8
:1036E000680C60E773E0CE0101960E94660C43E02F
:1036F00062E1CE0101960E94680C64E773E0CE019E
:1037000001960E94660C709201016092000189E0AE
:103710000E94810E892B09F067C06AE070E080E0AA
:1037200090E00E94450FF3CF8BE00E94810E892B21
:1037300009F461C08AE00E94810E892B09F465C0FA
:103740008091000190910101019721F543E060E033
:10375000CE0101960E94680C60E475E0CE010196EE
:103760000E94660C64E670E080E090E00E94450FE5
:1037700043E060E0CE0101960E94680C60E773E0D0
:10378000CE0101960E94660C68EC70E080E090E04B
:103790000E94450F8091000190910101029721F54F
:1037A00043E062E1CE0101960E94680C61E475E09D
:1037B000CE0101960E94660C64E670E080E090E025
:1037C0000E94450F43E062E1CE0101960E94680C21
:1037D00064E773E0CE0101960E94660C68EC70E02D
:1037E00080E090E00E94450F89E00E94810E0197E1
:1037F00009F49ACF14C080910001909101018230A8
:10380000910514F00C94662795CF8091000190915A
:103810000101823091050CF093CF0C946D278091BB
:103820000001909101018230910539F481E090E02E
:103830009093BE058093BD0544C08130910509F089
:1038400040C09093BE058093BD050091B9051091CD
:10385000BA05C8010E9419036091AC057091AD05CD
:1038600090E08617970719F0C8010E94170300918E
:10387000B9051091BA050F5F1F4FC8010E941903C7
:103880006091AA057091AB0590E08617970719F033
:10389000C8010E9417030091B9051091BA050E5F87
:1038A0001F4FC8010E94190390E02091AA05309192
:1038B000AB058217930729F06091BB05C8010E94F0
:1038C00017038091BD059091BE054F9709F0A7C0E1
:1038D00084E090E00E94190324E6829FC001112435
:1038E0009093BA058093B905CE0101960E94110B01
:1038F00040E060E0CE0101960E94680C68E372E04F
:10390000CE0101960E94660C41E061E0CE01019675
:103910000E94680C64EE73E0CE0101960E94660C72
:1039200041E06AE0CE0101960E94680C6091B90501
:103930007091BA05CE0101960E94710D42E061E0DE
:10394000CE0101960E94680C66EF73E0CE010196ED
:103950000E94660C42E06AE0CE0101960E94680C6B
:103960006091B9057091BA05CE0101960E94710D62
:1039700043E060E0CE0101960E94680C68E074E0CC
:10398000CE0101960E94660C89E00E94810E892B6F
:1039900089F46AE070E080E090E00E94450FF4CF87
:1039A0008BE00E94810E892B59F08AE00E94810EE3
:1039B000892B81F089E00E94810E019789F313C061
:1039C0008091B9059091BA0580329E4414F40C940C
:1039D0007427EBCF8091B9059091BA058536910592
:1039E0004CF30C94A92784E090E00E941903282F3F
:1039F0008091B9059091BA0564E670E00E94452C6B
:103A0000822F90E08617970721F084E090E00E94D3
:103A1000170381E090E09093BE058093BD058091EF
:103A2000BD059091BE05829709F0C1C087E090E086
:103A30000E94190390E09093BA058093B905CE01D6
:103A400001960E94110B40E060E0CE0101960E94B9
:103A5000680C6DE174E0CE0101960E94660C41E0B5
:103A600061E0CE0101960E94680C61E374E0CE0132
:103A700001960E94660C41E06AE0CE0101960E9428
:103A8000680C6091B9057091BA05CE0101960E944B
:103A9000710D42E061E0CE0101960E94680C6AE37C
:103AA00074E0CE0101960E94660C42E06AE0CE010D
:103AB00001960E94680C6091B9057091BA05CE011B
:103AC00001960E94710D43E060E0CE0101960E94D4
:103AD000680C6FE374E0CE0101960E94660C89E0E9
:103AE0000E94810E892B89F46AE070E080E090E00A
:103AF0000E94450FF4CF8BE00E94810E892B59F074
:103B00008AE00E94810E892B79F089E00E94810E63
:103B1000019789F336C08091B9059091BA054E9707
:103B200014F40C94E027ECCF8091B9059091BA057C
:103B300003975CF342E06AE0CE0101960E94680CB4
:103B40006DE375E0CE0101960E94660C42E06AE0EA
:103B5000CE0101960E94680C6091B9057091BA057A
:103B6000625071097093BA056093B905CE01019650
:103B70000E94710D64E670E080E090E00E94450FC5
:103B8000C4CF87E090E00E9419036091B90570915D
:103B9000BA0590E08617970721F087E090E00E9431
:103BA000170381E090E09093BE058093BD0580915E
:103BB000BD059091BE05839709F0EFC08CE290E0BF
:103BC0000E94190390E09093BA058093B905CE0145
:103BD00001960E94110B40E060E0CE0101960E9428
:103BE000680C63E574E0CE0101960E94660C41E02A
:103BF00060E0CE0101960E94680C63E674E0CE019D
:103C000001960E94660C42E061E0CE0101960E949E
:103C1000680C61E374E0CE0101960E94660C43E0FB
:103C200061E0CE0101960E94680C6AE374E0CE0167
:103C300001960E94660C42E06AE0CE0101960E9465
:103C4000680C8091B9059091BA05019731F467E746
:103C500074E0CE0101960E94660C8091B9059091A6
:103C6000BA05029731F46EE774E0CE0101960E9426
:103C7000660C8091B9059091BA05039731F464E818
:103C800074E0CE0101960E94660C8091B905909176
:103C9000BA05049731F46CE874E0CE0101960E94F5
:103CA000660C8091B9059091BA05059731F462E9E7
:103CB00074E0CE0101960E94660C8091B905909146
:103CC000BA05069731F46AE974E0CE0101960E94C4
:103CD000660C8091B9059091BA05079731F461EAB5
:103CE00074E0CE0101960E94660C89E00E94810E6C
:103CF000892B39F46AE070E080E090E00E94450F83
:103D0000F4CF07E010E0EE24E394F12C89E00E9468
:103D1000810E019761F58BE00E94810E892B49F499
:103D20008091B9059091BA058830910514F40C94EE
:103D300008288AE00E94810E892B49F48091B905F8
:103D40009091BA051816190614F40C940F288BE0FC
:103D50000E94810E892B11F40C948C288AE00E9419
:103D6000810E892B11F40C948C280C9416288CE26B
:103D700090E00E9419036091B9057091BA0590E036
:103D80008617970721F08CE290E00E94170381E0EC
:103D900090E09093BE058093BD058091BD05909104
:103DA000BE05892B11F40C94381281E090E09093B9
:103DB000BE058093BD050C9438121092280710920E
:103DC000290710922A0710922B0710922C071092A5
:103DD0002D0710922E0710922F0710925007109265
:103DE00051071092520710925307109240071092F9
:103DF0004107109242071092430710923007109229
:103E00003107109232071092330710926C0710920C
:103E10006D0710926E0710926F0710927007109244
:103E20007107109272071092730710929407109204
:103E30009507109296071092970710928407109298
:103E400085071092860710928707109274071092C8
:103E500075071092760710927707CE0101960E949F
:103E6000110B40E060E0CE0101960E94680C6EEC00
:103E700074E0CE0101960E94660C41E060E0CE0144
:103E800001960E94680C6BED74E0CE0101960E94D1
:103E9000660C43E060E0CE0101960E94680C6FEE74
:103EA00074E0CE0101960E94660C89E00E94810EAA
:103EB000892B39F46AE070E080E090E00E94450FC1
:103EC000F4CF40E050E46CE976E48CE197E00E94A6
:103ED000200A89E00E94810E019709F06CC08AE0F7
:103EE0000E94810E892B81F548E150E060E070E08E
:103EF0008CE197E00E94AB0D1092280710922907E1
:103F000010922A0710922B0710922C0710922D075F
:103F100010922E0710922F071092500710925107FF
:103F200010925207109253071092400710924107C7
:103F300010924207109243071092300710923107F7
:103F400010923207109233078BE00E94810E892B6A
:103F500009F0BFCF48EE5FEF6FEF7FEF8CE197E0A6
:103F60000E94AB0D109228071092290710922A0781
:103F700010922B0710922C0710922D0710922E07EB
:103F800010922F071092500710925107109252076B
:103F90001092530710924007109241071092420767
:103FA0001092430710923007109231071092320797
:103FB000109233078ECF40E050E06AEF74E48CE15A
:103FC00097E00E94200ACE0101960E94110B40E06A
:103FD00060E0CE0101960E94680C60E075E0CE01C1
:103FE00001960E94660C41E060E0CE0101960E94BD
:103FF000680C6BED74E0CE0101960E94660C43E004
:1040000060E0CE0101960E94680C6FEE74E0CE0174
:1040100001960E94660C89E00E94810E892B39F47A
:104020006AE070E080E090E00E94450FF4CF40E04D
:1040300050E46CE976E480E697E00E94200A89E08B
:104040000E94810E019709F06CC08AE00E94810EE7
:10405000892B81F540E150E060E070E080E697E078
:104060000E94AB0D10926C0710926D0710926E07B4
:1040700010926F07109270071092710710927207DA
:10408000109273071092940710929507109296075A
:104090001092970710928407109285071092860756
:1040A0001092870710927407109275071092760786
:1040B000109277078BE00E94810E892B09F0BFCF09
:1040C00040EF5FEF6FEF7FEF80E697E00E94AB0D70
:1040D00010926C0710926D0710926E0710926F0786
:1040E0001092700710927107109272071092730766
:1040F00010929407109295071092960710929707C6
:1041000010928407109285071092860710928707F5
:104110001092740710927507109276071092770725
:104120008ECF40E050E068EC73E480E697E00E94B8
:10413000200A84E690E00E941903A82E082F10E0C0
:104140001093B8050093B70585E690E00E94190327
:10415000D82E90E09093B6058093B50586E690E062
:104160000E941903B82EE82EF12CF092B405E092CB
:10417000B30584E090E00E94190324E6829FC00109
:1041800011249093A9058093A80587E090E00E94F0
:104190001903C82E90E09093B2058093B1058CE28C
:1041A00090E00E94190390E09093A7058093A605E4
:1041B0002CE2D29EC00111249093B6058093B505E0
:1041C0002CE2C29EB00111247093B2056093B10538
:1041D000EA94EF2869F0880F991F0E94452CAB9C48
:1041E000600D711D11247093AD056093AC0504C082
:1041F0001093AD050093AC05CE0101960E94110B02
:1042000089E00E94810E892B39F46AE070E080E039
:1042100090E00E94450FF4CF89E00E94810E019743
:1042200029F541E067E0CE0101960E94680C61E14A
:1042300075E0CE0101960E94660C68EC70E080E0AB
:1042400090E00E94450F41E067E0CE0101960E9498
:10425000680C6DE375E0CE0101960E94660C64E681
:1042600070E080E090E00E94450FD6CFCE0101962D
:104270000E94110B10926C0710926D0710926E073E
:1042800010926F07109270071092710710927207C8
:104290001092730710929407109295071092960748
:1042A0001092970710928407109285071092860744
:1042B0001092870710927407109275071092760774
:1042C00010927707109228071092290710922A0758
:1042D00010922B0710922C0710922D0710922E0788
:1042E00010922F0710925007109251071092520708
:1042F0001092530710924007109241071092420704
:104300001092430710923007109231071092320733
:10431000109233071092AB051092AA054091B50593
:104320005091B605519541955109052E000C660B2B
:10433000770B8CE197E00E94AB0D0091B3051091D3
:10434000B405E090B505F090B6052701440C551C66
:10435000A090B105B090B205C090B705D090B80557
:10436000E091A405F091A50520E030E0480181E04E
:10437000881A91082017310794F52115310551F459
:10438000C601D7FE02C080E090E0E80FF91F2F5F62
:104390003F4FF0CF0130110599F3C201B4010E94E3
:1043A000452C269FD001279FB00D369FB00D1124BC
:1043B000AE19BF09AF01F9013197E69FC001E79F30
:1043C000900DF69F900D11248E199F098A0D9B1D4B
:1043D000FA014F5F5F4FA817B907C4F7D1CFF09329
:1043E000A505E093A4051092AD051092AC0500E080
:1043F00010E060E8C62E6CE0D62E8091B305909157
:10440000B405081719070CF0C1C02091AC05309114
:10441000AD05232B09F0BAC00115110509F45AC0E6
:10442000019709F457C0EE24E394F12C580191E070
:10443000A91AB1082091B5053091B605C901880FB8
:10444000991F6091B3057091B405615071090E9484
:10445000452CA69EA001A79E500DB69E500D11247E
:10446000421B530BE091B105F091B205EE9EC001E5
:10447000EF9E900DFE9E900D1124840F951F069FB8
:10448000A001079F500D169F500D1124421B530B86
:104490002091AC053091AD05481759078CF02115D6
:1044A000310571F4AC01990F660B770B8CE197E045
:1044B0000E94AB0D0E941B032FEFE21AF20ABACF43
:1044C000232B41F4052E000C660B770B8CE197E053
:1044D0000E94AB0DE12CF12C6091B7057091B805ED
:1044E0008091AC059091AD05E616F706D4F40097DF
:1044F000C1F4C6010E94452C6E9DA0016F9D500D18
:104500007E9D500D1124052E000C660B770B80E666
:1045100097E00E94AB0D0E941B038FEFE81AF80A88
:10452000DBCF892B41F440E85CE060E070E080E69E
:1045300097E00E94AB0D10926C0710926D071092DD
:104540006E0710926F071092700710927107109209
:1045500072071092730710929407109295071092A9
:104560009607109297071092840710928507109271
:1045700086071092870710927407109275071092A1
:104580007607109277070F5F1F4F37CF10926C0797
:1045900010926D0710926E0710926F0710927007BD
:1045A000109271071092720710927307109294077D
:1045B0001092950710929607109297071092840711
:1045C0001092850710928607109287071092740741
:1045D00010927507109276071092770740E050E02E
:1045E000BA018CE197E00E94AB0D81E090E09093DE
:1045F000BE058093BD05CE0101960E94110B40E0DF
:1046000064E0CE0101960E94680C68E175E0CE017D
:1046100001960E94660C41E062E0CE0101960E9484
:10462000680C62E275E0CE0101960E94660C609112
:10463000AA057091AB05CE0101960E94710D1092F2
:10464000A5051092A40589E00E94810E019711F042
:104650000C94381243E066E0CE0101960E94680C8B
:1046600060E375E0CE0101960E94660C68EC70E094
:1046700080E090E00E94450F43E066E0CE010196A5
:104680000E94680C69E375E0CE0101960E94660CF9
:1046900064E670E080E090E00E94450FD4CFCE0148
:1046A00001960E94110B64E670E080E090E00E94A9
:1046B000450F40E060E0CE0101960E94680C64E482
:1046C00075E0CE0101960E94660C64E670E080E021
:1046D00090E00E94450F69E184E090E00E9417039A
:1046E00064E085E090E00E94170364E086E090E0DB
:1046F0000E9417036AE087E090E00E94170361E0E0
:1047000084E690E00E94170360E185E690E00E9455
:10471000170360E086E690E00E94170360E188E0FE
:1047200090E00E94170360E089E090E00E94170388
:1047300061E08AE090E00E94170360E28BE090E085
:104740000E94170360E08CE090E00E94170361E094
:104750008DE090E00E94170360E48EE090E00E94FC
:10476000170360E08FE090E00E94170361E080E1B2
:1047700090E00E94170360E181E190E00E9417033E
:1047800069E182E190E00E94170363E083E190E039
:104790000E94170360E184E190E00E94170362E346
:1047A00085E190E00E94170363E086E190E00E94BB
:1047B000170360E187E190E00E9417036BE488E152
:1047C00090E00E94170363E089E190E00E941703E4
:1047D00060E18AE190E00E94170369E18BE190E0DB
:1047E0000E94170365E08CE190E00E94170360E1EE
:1047F0008DE190E00E94170362E38EE190E00E9459
:10480000170365E08FE190E00E94170360E180E20A
:1048100090E00E9417036BE481E290E00E9417038E
:1048200065E082E290E00E94170360E283E290E09C
:104830000E94170369E184E290E00E94170363E09D
:1048400085E290E00E94170360E286E290E00E9419
:10485000170362E387E290E00E94170365E088E2B5
:1048600090E00E94170360E289E290E00E94170343
:104870006BE48AE290E00E94170365E08BE290E02F
:104880000E94170361E08CE290E00E94170367E644
:1048900081E090E00E94170365E682E090E00E94CC
:1048A000170365E683E090E00E9417030C94F9116A
:1048B00060E0CE0101960E94680C61E475E0CE01D3
:1048C00001960E94660C40910001509101014F5FDA
:1048D0005F4F509301014093000160E0CE010196CB
:1048E0000E94680C6AE672E0CE0101960E94660C96
:1048F0006CE271E080E090E00E94450F0C94811220
:1049000060E0CE0101960E94680C61E475E0CE0182
:1049100001960E94660C40910001509101014F5F89
:104920005F4F509301014093000160E0CE0101967A
:104930000E94680C6AE672E0CE0101960E94660C45
:104940006CE271E080E090E00E94450F0C9421132E
:10495000019690930101809300010C943D140197FE
:1049600090930101809300010C944A14409100013E
:10497000509101011416150614F00C94561638C007
:1049800060E0CE0101960E94680C61E475E0CE0102
:1049900001960E94660C40910001509101014F5F09
:1049A0005F4F509301014093000160E0CE010196FA
:1049B0000E94680C8091000190910101049731F0F0
:1049C0006AE672E0CE0101960E94660C80910001B9
:1049D00090910101049721F43092BA052092B90513
:1049E0006CE271E080E090E00E94450F0C944F165D
:1049F00060E0CE0101960E94680C61E475E0CE0192
:104A000001960E94660C40910001509101014150B5
:104A10005109509301014093000160E0CE010196DD
:104A20000E94680C8091000190910101892B31F066
:104A30006AE672E0CE0101960E94660C8091000148
:104A400090910101892B21F4B092BA05A092B90589
:104A50006CE271E080E090E00E94450F0C945616E5
:104A6000435060E0CE0101960E94680C6AE672E055
:104A7000CE0101960E94660C8AE00E94810E892B6D
:104A800009F041C0409100015091010147305105AA
:104A9000D4F5435060E0CE0101960E94680C61E4B9
:104AA00075E0CE0101960E94660C40910001509184
:104AB00001014F5F5F4F509301014093000143504C
:104AC00060E0CE0101960E94680C809100019091F7
:104AD0000101079731F06AE672E0CE0101960E946B
:104AE000660C8091000190910101079731F483E0F9
:104AF00090E09093BA058093B9056CE271E080E094
:104B000090E00E94450F8BE00E94810E892B11F0EE
:104B10000C94CD1640910001509101014430510593
:104B200014F40C94CD16435060E0CE0101960E941F
:104B3000680C61E475E0CE0101960E94660C40911C
:104B400000015091010141505109509301014093DE
:104B50000001435060E0CE0101960E94680C8091F4
:104B6000000190910101039731F06AE672E0CE01F5
:104B700001960E94660C80910001909101010397BB
:104B800021F49092BA058092B9056CE271E080E060
:104B900090E00E94450F0C94CD1664E670E080E032
:104BA00090E00E94450F4AEF400F60E0CE01019671
:104BB0000E94680C6AE672E0CE0101960E94660CC3
:104BC0008AE00E94810E892B09F03FC040910001CC
:104BD000509101014A305105C4F5465060E0CE01C4
:104BE00001960E94680C61E475E0CE0101960E9476
:104BF000660C40910001509101014F5F5F4F50934F
:104C0000010140930001465060E0CE0101960E94F0
:104C1000680C80910001909101010A9731F06AE6D9
:104C200072E0CE0101960E94660C80910001909185
:104C300001010A9721F4D092BA05C092B9056CE23D
:104C400071E080E090E00E94450F8BE00E94810EB1
:104C5000892B11F00C9444174091000150910101EF
:104C60004730510514F40C944417465060E0CE01CF
:104C700001960E94680C61E475E0CE0101960E94E5
:104C8000660C40910001509101014150510950932F
:104C9000010140930001465060E0CE0101960E9460
:104CA000680C8091000190910101069731F06AE64D
:104CB00072E0CE0101960E94660C809100019091F5
:104CC0000101069731F482E090E09093BA05809359
:104CD000B9056CE271E080E090E00E94450F0C9411
:104CE000441764E670E080E090E00E94450F47EFD3
:104CF000400F60E0CE0101960E94680C6AE672E007
:104D0000CE0101960E94660C8AE00E94810E892BDA
:104D100009F03FC040910001509101014D30510513
:104D2000C4F5495060E0CE0101960E94680C61E430
:104D300075E0CE0101960E94660C409100015091F1
:104D400001014F5F5F4F50930101409300014950B3
:104D500060E0CE0101960E94680C80910001909164
:104D600001010D9731F06AE672E0CE0101960E94D2
:104D7000660C80910001909101010D9721F49092B1
:104D8000BA058092B9056CE271E080E090E00E9483
:104D9000450F8BE00E94810E892B11F00C94C017F7
:104DA00040910001509101014A30510514F40C94D6
:104DB000C01716C00D30110531F481E090E09093DA
:104DC00001018093000189E00E94810E892B11F07E
:104DD0000C94BD151092BA051092B9050C94B71534
:104DE000495060E0CE0101960E94680C61E475E0D4
:104DF000CE0101960E94660C409100015091010184
:104E0000415051095093010140930001495060E025
:104E1000CE0101960E94680C8091000190910101E1
:104E2000099731F06AE672E0CE0101960E94660CA5
:104E30008091000190910101099731F483E090E0A5
:104E40009093BA058093B9056CE271E080E090E040
:104E50000E94450F0C94C017019790930101809315
:104E600000010C9480180196909301018093000139
:104E70000C948618959587959093AD058093AC0515
:104E80000C94B119880F991F9093AD058093AC05D0
:104E90000C94B61901979093AB058093AA050C94D6
:104EA000311A01969093AB058093AA050C94361A9B
:104EB00001979093BC058093BB050C94B11A0196A1
:104EC0009093BC058093BB050C94B61A0197909300
:104ED0000101809300010C949A1B019690930101AB
:104EE000809300010C94A01B42E06AE0CE01019681
:104EF0000E94680C6EE375E0CE0101960E94660C7C
:104F000042E06AE0CE0101960E94680C6091B9050A
:104F10007091BA056C597F4F7093BA056093B905CB
:104F2000CE0101960E94710D8091B9059091BA054C
:104F3000883B9B4034F46EE670E080E090E00E9495
:104F4000450F66E470E080E090E00E94450F0C940D
:104F5000D51C42E06AE0CE0101960E94680C6DE328
:104F600075E0CE0101960E94660C42E06AE0CE0137
:104F700001960E94680C6091B9057091BA0564565B
:104F800071097093BA056093B905CE0101960E942C
:104F9000710D66E470E080E090E00E94450F809122
:104FA000B9059091BA05883B9B4014F00C94DA1C2B
:104FB0006EE670E080E090E00E94450F0C94DA1CF1
:104FC00042E06AE0CE0101960E94680C6EE375E053
:104FD000CE0101960E94660C42E06AE0CE01019685
:104FE0000E94680C6091B9057091BA056E5F7F4FA1
:104FF0007093BA056093B905CE0101960E94710DB8
:1050000064E670E080E090E00E94450F0C94801D03
:1050100001969093BA058093B9050C94991E019757
:105020009093BA058093B9050C94A71E8091B90599
:105030009091BA05892B21F41093BA050093B90514
:105040008091B9059091BA05089721F4F092BA05BC
:10505000E092B90543E06AE0CE0101960E94680C37
:105060008091B9059091BA05019731F466EA74E030
:10507000CE0101960E94660C8091B9059091BA0507
:10508000029731F46EEA74E0CE0101960E94660C3C
:105090008091B9059091BA05039731F464E874E002
:1050A000CE0101960E94660C8091B9059091BA05D7
:1050B000049731F466EB74E0CE0101960E94660C11
:1050C0008091B9059091BA05059731F462E974E0D1
:1050D000CE0101960E94660C8091B9059091BA05A7
:1050E000069731F46EEB74E0CE0101960E94660CD7
:1050F0008091B9059091BA05079731F466EC74E098
:10510000CE0101960E94660C6AE070E080E090E0BB
:105110000E94450F0C94861E6AE070E080E090E0EB
:105120000E94450F0C94A71E8F929F92AF92BF9240
:10513000CF92DF92EF92FF920F931F93CF93DF9363
:10514000E3E7F6E01382128288EE93E0A0E0B0E09D
:1051500084839583A683B78321E931E0318320835B
:1051600025EC30E03587248724EC30E0378726872C
:1051700020EC30E0318B208B21EC30E0338B228B24
:1051800022EC30E0358B248B26EC30E0378B268BFD
:10519000118E128E138E148EE0E1F7E013821282CC
:1051A00084839583A683B7838FEA91E0918380837C
:1051B000E0E6F7E001EC11E011830083882483949A
:1051C00083821486158616861786108A118A128A9B
:1051D000138A148A158A168A178AC12CD12C80E862
:1051E000E82E8FE3F82EC08ED18EE28EF38E148ED1
:1051F000158E168E178EC0A2D1A2E2A2F3A214A21F
:1052000015A216A217A2C1E0D0E0D5A7C4A7992481
:105210009A9497A610A611A612A613A695E0B92EE9
:10522000B48224E0A22EA582A682B78216A614AA72
:1052300015AA16AA17AA10AE11AE12AE13AE14AE6E
:1052400015AE16AE17AEC092A007D092A107E0929D
:10525000A207F092A3071282108611861286138687
:10526000CF010E94A608B701A60180E697E00E9440
:10527000200AECE1F7E0118300838382148615860F
:1052800016861786108A118A128A138A148A158A3A
:10529000168A178AC08ED18EE28EF38E148E158EEA
:1052A000168E178EC0A2D1A2E2A2F3A214A215A25A
:1052B00016A217A2D5A7C4A797A610A611A612A634
:1052C00013A687E0848386E08583A682B78216A62C
:1052D00014AA15AA16AA17AA10AE11AE12AE13AED2
:1052E00014AE15AE16AE17AEC0925C07D0925D0735
:1052F000E0925E07F0925F07128210861186128696
:105300001386CF010E94A608B701A6018CE197E0A1
:10531000DF91CF911F910F91FF90EF90DF90CF9091
:10532000BF90AF909F908F900C94200AF999FECF78
:1053300092BD81BDF89A992780B50895262FF999D5
:10534000FECF1FBA92BD81BD20BD0FB6F894FA9A68
:10535000F99A0FBE019608955058BB27AA270E94BC
:10536000C4290C943E2B0E94302B38F00E94372B1E
:1053700020F039F49F3F19F426F40C942D2B0EF4F1
:10538000E095E7FB0C94272BE92F0E944F2B58F355
:10539000BA17620773078407950720F079F4A6F51A
:1053A0000C94712B0EF4E0950B2EBA2FA02D0B014F
:1053B000B90190010C01CA01A0011124FF27591B5A
:1053C00099F0593F50F4503E68F11A16F040A22F60
:1053D000232F342F4427585FF3CF469537952795D1
:1053E000A795F0405395C9F77EF41F16BA0B620BD0
:1053F000730B840BBAF09150A1F0FF0FBB1F661F17
:10540000771F881FC2F70EC0BA0F621F731F841F59
:1054100048F4879577956795B795F7959E3F08F07F
:10542000B0CF9395880F08F09927EE0F9795879541
:1054300008950E94032B08F481E008950E94322A07
:105440000C943E2B0E94372B58F00E94302B40F0DA
:1054500029F45F3F29F00C94272B51110C94722BE7
:105460000C942D2B0E944F2B68F39923B1F35523F5
:1054700091F3951B550BBB27AA2762177307840767
:1054800038F09F5F5F4F220F331F441FAA1FA9F3FD
:1054900035D00E2E3AF0E0E832D091505040E695EB
:1054A000001CCAF72BD0FE2F29D0660F771F881F4C
:1054B000BB1F261737074807AB07B0E809F0BB0B3F
:1054C000802DBF01FF2793585F4F3AF09E3F510553
:1054D00078F00C94272B0C94722B5F3FE4F3983EEA
:1054E000D4F3869577956795B795F7959F5FC9F73C
:1054F000880F911D9695879597F90895E1E0660FBD
:10550000771F881FBB1F621773078407BA0720F035
:10551000621B730B840BBA0BEE1F88F7E09508959E
:105520000E94972A6894B1110C94722B08950E94DE
:10553000572B88F09F5798F0B92F9927B751B0F0A3
:10554000E1F0660F771F881F991F1AF0BA95C9F707
:1055500014C0B13091F00E94712BB1E008950C9409
:10556000712B672F782F8827B85F39F0B93FCCF3BC
:10557000869577956795B395D9F73EF49095809584
:10558000709561957F4F8F4F9F4F0895E89409C0A4
:1055900097FB3EF490958095709561957F4F8F4F66
:1055A0009F4F9923A9F0F92F96E9BB279395F6957C
:1055B000879577956795B795F111F8CFFAF4BB0FFA
:1055C00011F460FF1BC06F5F7F4F8F4F9F4F16C05E
:1055D000882311F096E911C0772321F09EE8872FE8
:1055E000762F05C0662371F096E8862F70E060E0A4
:1055F0002AF09A95660F771F881FDAF7880F96951D
:10560000879597F90895990F0008550FAA0BE0E8C0
:10561000FEEF16161706E807F907C0F01216130674
:10562000E407F50798F0621B730B840B950B39F4B4
:105630000A2661F0232B242B252B21F408950A261A
:1056400009F4A140A6958FEF811D811D089597F95A
:105650009F6780E870E060E008959FEF80EC089518
:1056600000240A9416161706180609060895002441
:105670000A9412161306140605060895092E0394BB
:10568000000C11F4882352F0BB0F40F4BF2B11F42F
:1056900060FF04C06F5F7F4F8F4F9F4F089557FD8E
:1056A0009058440F551F59F05F3F71F04795880F90
:1056B00097FB991F61F09F3F79F087950895121627
:1056C00013061406551FF2CF4695F1DF08C01616D3
:1056D00017061806991FF1CF869571056105089484
:1056E0000895E894BB2766277727CB0197F908959B
:1056F0000E94032B08F48FEF08950E94902B0C94C6
:105700003E2B0E94302B38F00E94372B20F095233F
:1057100011F00C94272B0C942D2B11240C94722B2C
:105720000E944F2B70F3959FC1F3950F50E0551FCA
:10573000629FF001729FBB27F00DB11D639FAA27E6
:10574000F00DB11DAA1F649F6627B00DA11D661F35
:10575000829F2227B00DA11D621F739FB00DA11D56
:10576000621F839FA00D611D221F749F3327A00D10
:10577000611D231F849F600D211D822F762F6A2FAC
:1057800011249F5750409AF0F1F088234AF0EE0F11
:10579000FF1FBB1F661F771F881F91505040A9F73E
:1057A0009E3F510580F00C94272B0C94722B5F3F89
:1057B000E4F3983ED4F3869577956795B795F7957A
:1057C000E7959F5FC1F7FE2B880F911D96958795F2
:1057D00097F9089519F416F40C942D2B0C94302C91
:1057E0000E94572BB8F39923C9F3B6F39F57550B73
:1057F00087FF0E943E2C0024A0E640EA90018058DA
:105800005695979528F4805C660F771F881F20F0C7
:1058100026173707480730F4621B730B840B2029C7
:1058200031294A2BA69517940794202531254A271C
:1058300058F7660F771F881F20F02617370748078D
:1058400030F4620B730B840B200D311D411DA095AC
:1058500081F7B901842F9158880F969587950895FF
:105860009F3F31F0915020F4879577956795B795D4
:10587000880F911D9695879597F9089591505040FE
:10588000660F771F881FD2F7089597FB072E16F42F
:10589000009407D077FD09D00E94A02C07FC05D00A
:1058A0003EF4909581959F4F0895709561957F4F37
:1058B0000895A1E21A2EAA1BBB1BFD010DC0AA1F51
:1058C000BB1FEE1FFF1FA217B307E407F50720F069
:1058D000A21BB30BE40BF50B661F771F881F991FE4
:1058E0001A9469F760957095809590959B01AC012D
:1058F000BD01CF010895052E97FB1EF400940E9470
:10590000922C57FD07D00E94592C07FC03D04EF46F
:105910000C94922C50954095309521953F4F4F4FC8
:105920005F4F089590958095709561957F4F8F4F4B
:105930009F4F0895EE0FFF1F0590F491E02D0994FD
:10594000AA1BBB1B51E107C0AA1FBB1FA617B707A5
:1059500010F0A61BB70B881F991F5A95A9F78095C1
:105960009095BC01CD01089581E090E0F8940C94ED
:06597000B92CF894FFCFF2
:1059760001000300000000003108A6055B015A0182
:105986005E019D009C006C08000000003108A60521
:105996005B015A0131091D081709F8080B000900B7
:1059A60000000100010100000001000100000101EA
:1059B60001000000000001000100000000000000DE
:1059C60001000101000000000101010001010100C8
:1059D60000010000000000000000010101010101BA
:1059E60001010001010001000001000101010000A8
:1059F6000001010101004014540040105000000055
:105A0600003906A605D00586060106DF05F3050062
:105A16000000006C08A6055B015A01000000002B7F
:105A260001FE005B01D200F600E200D30000000098
:105A360000DA08A6086E08D807C2073C08A1076D59
:105A4600074C07F606B2063344205363616E6E6553
:105A5600722076312E30002D3E2052756E20507207
:105A66006F6772616D0053657474696E6773002D9C
:105A76003E2052756E206C6173742050726F67728F
:105A8600616D004C6F61642050726F6772616D00CA
:105A9600206261636B002D3E204D6F64696679203C
:105AA60050726F6772616D0054696D652070657222
:105AB6002050686F746F004D696E2E2056657274A3
:105AC6002E20416E676C65005365742043616D65D9
:105AD60072612020204241434B002D3E004C6173F1
